{
  "contractName": "Voting",
  "abi": [
    {
      "inputs": [],
      "stateMutability": "nonpayable",
      "type": "constructor"
    },
    {
      "anonymous": false,
      "inputs": [
        {
          "indexed": true,
          "internalType": "address",
          "name": "voter",
          "type": "address"
        },
        {
          "indexed": false,
          "internalType": "uint256",
          "name": "pollIndex",
          "type": "uint256"
        },
        {
          "indexed": false,
          "internalType": "uint256",
          "name": "optionIndex",
          "type": "uint256"
        },
        {
          "indexed": false,
          "internalType": "string",
          "name": "qrCode",
          "type": "string"
        }
      ],
      "name": "Voted",
      "type": "event"
    },
    {
      "inputs": [],
      "name": "admin",
      "outputs": [
        {
          "internalType": "address",
          "name": "",
          "type": "address"
        }
      ],
      "stateMutability": "view",
      "type": "function",
      "constant": true
    },
    {
      "inputs": [
        {
          "internalType": "address",
          "name": "",
          "type": "address"
        }
      ],
      "name": "hasVoted",
      "outputs": [
        {
          "internalType": "bool",
          "name": "",
          "type": "bool"
        }
      ],
      "stateMutability": "view",
      "type": "function",
      "constant": true
    },
    {
      "inputs": [
        {
          "internalType": "uint256",
          "name": "",
          "type": "uint256"
        }
      ],
      "name": "polls",
      "outputs": [
        {
          "internalType": "string",
          "name": "question",
          "type": "string"
        }
      ],
      "stateMutability": "view",
      "type": "function",
      "constant": true
    },
    {
      "inputs": [
        {
          "internalType": "string",
          "name": "_question",
          "type": "string"
        },
        {
          "internalType": "string[]",
          "name": "_options",
          "type": "string[]"
        }
      ],
      "name": "createPoll",
      "outputs": [],
      "stateMutability": "nonpayable",
      "type": "function"
    },
    {
      "inputs": [],
      "name": "pollsCount",
      "outputs": [
        {
          "internalType": "uint256",
          "name": "",
          "type": "uint256"
        }
      ],
      "stateMutability": "view",
      "type": "function",
      "constant": true
    },
    {
      "inputs": [
        {
          "internalType": "uint256",
          "name": "_pollIndex",
          "type": "uint256"
        }
      ],
      "name": "getPollOptions",
      "outputs": [
        {
          "internalType": "string[]",
          "name": "",
          "type": "string[]"
        }
      ],
      "stateMutability": "view",
      "type": "function",
      "constant": true
    },
    {
      "inputs": [
        {
          "internalType": "uint256",
          "name": "pollIndex",
          "type": "uint256"
        },
        {
          "internalType": "uint256",
          "name": "optionIndex",
          "type": "uint256"
        },
        {
          "internalType": "string",
          "name": "qrCode",
          "type": "string"
        }
      ],
      "name": "vote",
      "outputs": [],
      "stateMutability": "nonpayable",
      "type": "function"
    },
    {
      "inputs": [
        {
          "internalType": "uint256",
          "name": "_pollIndex",
          "type": "uint256"
        }
      ],
      "name": "getResults",
      "outputs": [
        {
          "internalType": "uint256[]",
          "name": "",
          "type": "uint256[]"
        }
      ],
      "stateMutability": "view",
      "type": "function",
      "constant": true
    }
  ],
  "bytecode": "0x608060405234801561001057600080fd5b50336000806101000a81548173ffffffffffffffffffffffffffffffffffffffff021916908373ffffffffffffffffffffffffffffffffffffffff16021790555061154d806100606000396000f3fe608060405234801561001057600080fd5b50600436106100885760003560e01c8063a1bbfc051161005b578063a1bbfc0514610127578063ac2f007414610143578063f756276514610173578063f851a440146101a357610088565b806309eef43e1461008d578063179d760d146100bd5780637e3d71c3146100db57806381a60c0d146100f7575b600080fd5b6100a760048036038101906100a29190610b9a565b6101c1565b6040516100b491906110b9565b60405180910390f35b6100c56101e1565b6040516100d291906111b6565b60405180910390f35b6100f560048036038101906100f09190610bc3565b6101ee565b005b610111600480360381019061010c9190610c2f565b61035c565b60405161011e9190611097565b60405180910390f35b610141600480360381019061013c9190610c58565b6104f6565b005b61015d60048036038101906101589190610c2f565b6107e0565b60405161016a91906110d4565b60405180910390f35b61018d60048036038101906101889190610c2f565b610896565b60405161019a9190611075565b60405180910390f35b6101ab6109ba565b6040516101b8919061105a565b60405180910390f35b60016020528060005260406000206000915054906101000a900460ff1681565b6000600280549050905090565b60008054906101000a900473ffffffffffffffffffffffffffffffffffffffff1673ffffffffffffffffffffffffffffffffffffffff163373ffffffffffffffffffffffffffffffffffffffff161461027c576040517f08c379a000000000000000000000000000000000000000000000000000000000815260040161027390611156565b60405180910390fd5b600060026001816001815401808255809150500390600052602060002090600402019050828160000190805190602001906102b89291906109de565b5060005b82518110156103565781600101838281518110610302577f4e487b7100000000000000000000000000000000000000000000000000000000600052603260045260246000fd5b60200260200101519080600181540180825580915050600190039060005260206000200160009091909190915090805190602001906103429291906109de565b50808061034e90611402565b9150506102bc565b50505050565b606060028054905082106103a5576040517f08c379a000000000000000000000000000000000000000000000000000000000815260040161039c90611116565b60405180910390fd5b6000600283815481106103e1577f4e487b7100000000000000000000000000000000000000000000000000000000600052603260045260246000fd5b906000526020600020906004020190506000816001018054905067ffffffffffffffff81111561043a577f4e487b7100000000000000000000000000000000000000000000000000000000600052604160045260246000fd5b6040519080825280602002602001820160405280156104685781602001602082028036833780820191505090505b50905060005b82600101805490508110156104eb57826002016000828152602001908152602001600020548282815181106104cc577f4e487b7100000000000000000000000000000000000000000000000000000000600052603260045260246000fd5b60200260200101818152505080806104e390611402565b91505061046e565b508092505050919050565b600160003373ffffffffffffffffffffffffffffffffffffffff1673ffffffffffffffffffffffffffffffffffffffff16815260200190815260200160002060009054906101000a900460ff1615610583576040517f08c379a000000000000000000000000000000000000000000000000000000000815260040161057a90611176565b60405180910390fd5b60028054905083106105ca576040517f08c379a00000000000000000000000000000000000000000000000000000000081526004016105c190611136565b60405180910390fd5b600060028481548110610606577f4e487b7100000000000000000000000000000000000000000000000000000000600052603260045260246000fd5b906000526020600020906004020190508060010180549050831061065f576040517f08c379a0000000000000000000000000000000000000000000000000000000008152600401610656906110f6565b60405180910390fd5b80600301826040516106719190611043565b908152602001604051809103902060009054906101000a900460ff16156106cd576040517f08c379a00000000000000000000000000000000000000000000000000000000081526004016106c490611196565b60405180910390fd5b80600201600084815260200190815260200160002060008154809291906106f390611402565b919050555060018060003373ffffffffffffffffffffffffffffffffffffffff1673ffffffffffffffffffffffffffffffffffffffff16815260200190815260200160002060006101000a81548160ff021916908315150217905550600181600301836040516107639190611043565b908152602001604051809103902060006101000a81548160ff0219169083151502179055503373ffffffffffffffffffffffffffffffffffffffff167fd969941a45ed3675d614ac47cc132816bf1a99f3ac1180b6c8cdcb7b2c163bf28585856040516107d2939291906111d1565b60405180910390a250505050565b600281815481106107f057600080fd5b9060005260206000209060040201600091509050806000018054610813906113d0565b80601f016020809104026020016040519081016040528092919081815260200182805461083f906113d0565b801561088c5780601f106108615761010080835404028352916020019161088c565b820191906000526020600020905b81548152906001019060200180831161086f57829003601f168201915b5050505050905081565b6060600282815481106108d2577f4e487b7100000000000000000000000000000000000000000000000000000000600052603260045260246000fd5b9060005260206000209060040201600101805480602002602001604051908101604052809291908181526020016000905b828210156109af578382906000526020600020018054610922906113d0565b80601f016020809104026020016040519081016040528092919081815260200182805461094e906113d0565b801561099b5780601f106109705761010080835404028352916020019161099b565b820191906000526020600020905b81548152906001019060200180831161097e57829003601f168201915b505050505081526020019060010190610903565b505050509050919050565b60008054906101000a900473ffffffffffffffffffffffffffffffffffffffff1681565b8280546109ea906113d0565b90600052602060002090601f016020900481019282610a0c5760008555610a53565b82601f10610a2557805160ff1916838001178555610a53565b82800160010185558215610a53579182015b82811115610a52578251825591602001919060010190610a37565b5b509050610a609190610a64565b5090565b5b80821115610a7d576000816000905550600101610a65565b5090565b6000610a94610a8f84611240565b61120f565b9050808382526020820190508260005b85811015610ad45781358501610aba8882610b5b565b845260208401935060208301925050600181019050610aa4565b5050509392505050565b6000610af1610aec8461126c565b61120f565b905082815260208101848484011115610b0957600080fd5b610b1484828561138e565b509392505050565b600081359050610b2b816114e9565b92915050565b600082601f830112610b4257600080fd5b8135610b52848260208601610a81565b91505092915050565b600082601f830112610b6c57600080fd5b8135610b7c848260208601610ade565b91505092915050565b600081359050610b9481611500565b92915050565b600060208284031215610bac57600080fd5b6000610bba84828501610b1c565b91505092915050565b60008060408385031215610bd657600080fd5b600083013567ffffffffffffffff811115610bf057600080fd5b610bfc85828601610b5b565b925050602083013567ffffffffffffffff811115610c1957600080fd5b610c2585828601610b31565b9150509250929050565b600060208284031215610c4157600080fd5b6000610c4f84828501610b85565b91505092915050565b600080600060608486031215610c6d57600080fd5b6000610c7b86828701610b85565b9350506020610c8c86828701610b85565b925050604084013567ffffffffffffffff811115610ca957600080fd5b610cb586828701610b5b565b9150509250925092565b6000610ccb8383610ddc565b905092915050565b6000610cdf8383611025565b60208301905092915050565b610cf481611346565b82525050565b6000610d05826112bc565b610d0f81856112f7565b935083602082028501610d218561129c565b8060005b85811015610d5d5784840389528151610d3e8582610cbf565b9450610d49836112dd565b925060208a01995050600181019050610d25565b50829750879550505050505092915050565b6000610d7a826112c7565b610d848185611308565b9350610d8f836112ac565b8060005b83811015610dc0578151610da78882610cd3565b9750610db2836112ea565b925050600181019050610d93565b5085935050505092915050565b610dd681611358565b82525050565b6000610de7826112d2565b610df18185611319565b9350610e0181856020860161139d565b610e0a816114d8565b840191505092915050565b6000610e20826112d2565b610e2a818561132a565b9350610e3a81856020860161139d565b610e43816114d8565b840191505092915050565b6000610e59826112d2565b610e63818561133b565b9350610e7381856020860161139d565b80840191505092915050565b6000610e8c60148361132a565b91507f496e76616c6964206f7074696f6e20696e6465780000000000000000000000006000830152602082019050919050565b6000610ecc60148361132a565b91507f506f6c6c20646f6573206e6f742065786973742e0000000000000000000000006000830152602082019050919050565b6000610f0c60128361132a565b91507f496e76616c696420706f6c6c20696e64657800000000000000000000000000006000830152602082019050919050565b6000610f4c60208361132a565b91507f4f6e6c79207468652061646d696e2063616e2063726561746520706f6c6c732e6000830152602082019050919050565b6000610f8c60168361132a565b91507f596f75206861766520616c726561647920766f746564000000000000000000006000830152602082019050919050565b6000610fcc60228361132a565b91507f5468697320515220636f64652068617320616c7265616479206265656e20757360008301527f65640000000000000000000000000000000000000000000000000000000000006020830152604082019050919050565b61102e81611384565b82525050565b61103d81611384565b82525050565b600061104f8284610e4e565b915081905092915050565b600060208201905061106f6000830184610ceb565b92915050565b6000602082019050818103600083015261108f8184610cfa565b905092915050565b600060208201905081810360008301526110b18184610d6f565b905092915050565b60006020820190506110ce6000830184610dcd565b92915050565b600060208201905081810360008301526110ee8184610e15565b905092915050565b6000602082019050818103600083015261110f81610e7f565b9050919050565b6000602082019050818103600083015261112f81610ebf565b9050919050565b6000602082019050818103600083015261114f81610eff565b9050919050565b6000602082019050818103600083015261116f81610f3f565b9050919050565b6000602082019050818103600083015261118f81610f7f565b9050919050565b600060208201905081810360008301526111af81610fbf565b9050919050565b60006020820190506111cb6000830184611034565b92915050565b60006060820190506111e66000830186611034565b6111f36020830185611034565b81810360408301526112058184610e15565b9050949350505050565b6000604051905081810181811067ffffffffffffffff82111715611236576112356114a9565b5b8060405250919050565b600067ffffffffffffffff82111561125b5761125a6114a9565b5b602082029050602081019050919050565b600067ffffffffffffffff821115611287576112866114a9565b5b601f19601f8301169050602081019050919050565b6000819050602082019050919050565b6000819050602082019050919050565b600081519050919050565b600081519050919050565b600081519050919050565b6000602082019050919050565b6000602082019050919050565b600082825260208201905092915050565b600082825260208201905092915050565b600082825260208201905092915050565b600082825260208201905092915050565b600081905092915050565b600061135182611364565b9050919050565b60008115159050919050565b600073ffffffffffffffffffffffffffffffffffffffff82169050919050565b6000819050919050565b82818337600083830152505050565b60005b838110156113bb5780820151818401526020810190506113a0565b838111156113ca576000848401525b50505050565b600060028204905060018216806113e857607f821691505b602082108114156113fc576113fb61147a565b5b50919050565b600061140d82611384565b91507fffffffffffffffffffffffffffffffffffffffffffffffffffffffffffffffff8214156114405761143f61144b565b5b600182019050919050565b7f4e487b7100000000000000000000000000000000000000000000000000000000600052601160045260246000fd5b7f4e487b7100000000000000000000000000000000000000000000000000000000600052602260045260246000fd5b7f4e487b7100000000000000000000000000000000000000000000000000000000600052604160045260246000fd5b6000601f19601f8301169050919050565b6114f281611346565b81146114fd57600080fd5b50565b61150981611384565b811461151457600080fd5b5056fea26469706673582212202784521d91748d23f0f8ceca961a99a67249cb5ed6b285096bad32b3c12e792264736f6c63430008000033",
  "immutableReferences": {},
  "source": "// SPDX-License-Identifier: MIT\r\npragma solidity ^0.8.0;\r\n\r\ncontract Voting {\r\n    address public admin;\r\n\r\n    // Mapping to track whether an address has voted\r\n    mapping(address => bool) public hasVoted;\r\n\r\n    struct Poll {\r\n        string question;\r\n        string[] options;\r\n        mapping(uint => uint) votes; // Mapping to store votes for each option\r\n        mapping(string => bool) usedQrCodes; // Mapping to track used QR codes\r\n    }\r\n\r\n    Poll[] public polls;\r\n\r\n    // Event to log when a vote is cast\r\n    event Voted(address indexed voter, uint256 pollIndex, uint256 optionIndex, string qrCode);\r\n\r\n    constructor() {\r\n        admin = msg.sender;\r\n    }\r\n\r\n    // Create a new poll\r\n    function createPoll(string memory _question, string[] memory _options) public {\r\n        require(msg.sender == admin, \"Only the admin can create polls.\");\r\n        Poll storage newPoll = polls.push();\r\n        newPoll.question = _question;\r\n        for (uint i = 0; i < _options.length; i++) {\r\n            newPoll.options.push(_options[i]);\r\n        }\r\n    }\r\n\r\n    // Function to get the count of polls\r\n    function pollsCount() public view returns (uint) {\r\n        return polls.length;\r\n    }\r\n\r\n    // Get poll options for a specific poll index\r\n    function getPollOptions(uint _pollIndex) public view returns (string[] memory) {\r\n        return polls[_pollIndex].options;\r\n    }\r\n\r\n    // Vote in a poll\r\n    function vote(uint256 pollIndex, uint256 optionIndex, string memory qrCode) public {\r\n        // Ensure that the sender hasn't already voted\r\n        require(!hasVoted[msg.sender], \"You have already voted\");\r\n\r\n        // Ensure the poll exists and the optionIndex is valid\r\n        require(pollIndex < polls.length, \"Invalid poll index\");\r\n        Poll storage poll = polls[pollIndex];\r\n        require(optionIndex < poll.options.length, \"Invalid option index\");\r\n\r\n        // Ensure the QR code hasn't been used before\r\n        require(!poll.usedQrCodes[qrCode], \"This QR code has already been used\");\r\n\r\n        // Process the vote (increment the vote count for the selected option)\r\n        poll.votes[optionIndex]++;\r\n\r\n        // Mark the sender as having voted\r\n        hasVoted[msg.sender] = true;\r\n\r\n        // Mark the QR code as used\r\n        poll.usedQrCodes[qrCode] = true;\r\n\r\n        // Emit the vote event with QR code\r\n        emit Voted(msg.sender, pollIndex, optionIndex, qrCode);\r\n    }\r\n\r\n    // Get poll results\r\n    function getResults(uint _pollIndex) public view returns (uint[] memory) {\r\n        require(_pollIndex < polls.length, \"Poll does not exist.\");\r\n        Poll storage poll = polls[_pollIndex];\r\n        uint[] memory results = new uint[](poll.options.length);\r\n        for (uint i = 0; i < poll.options.length; i++) {\r\n            results[i] = poll.votes[i];\r\n        }\r\n        return results;\r\n    }\r\n}\r\n",
  "sourcePath": "C:\\Users\\shoai\\OneDrive\\Desktop\\STUDY\\simple-voting-system\\contracts\\Voting.sol",
  "compiler": {
    "name": "solc",
    "version": "0.8.0+commit.c7dfd78e.Emscripten.clang"
  },
  "schemaVersion": "3.4.16",
  "updatedAt": "2025-01-29T13:55:52.839Z",
  "networkType": "ethereum",
  "devdoc": {
    "kind": "dev",
    "methods": {},
    "version": 1
  },
  "userdoc": {
    "kind": "user",
    "methods": {},
    "version": 1
  }
}