{
  "contractName": "Voting",
  "abi": [
    {
      "inputs": [],
      "stateMutability": "nonpayable",
      "type": "constructor"
    },
    {
      "anonymous": false,
      "inputs": [
        {
          "indexed": true,
          "internalType": "address",
          "name": "voter",
          "type": "address"
        },
        {
          "indexed": false,
          "internalType": "uint256",
          "name": "pollIndex",
          "type": "uint256"
        },
        {
          "indexed": false,
          "internalType": "uint256",
          "name": "optionIndex",
          "type": "uint256"
        },
        {
          "indexed": false,
          "internalType": "string",
          "name": "qrCode",
          "type": "string"
        }
      ],
      "name": "Voted",
      "type": "event"
    },
    {
      "inputs": [],
      "name": "admin",
      "outputs": [
        {
          "internalType": "address",
          "name": "",
          "type": "address"
        }
      ],
      "stateMutability": "view",
      "type": "function",
      "constant": true
    },
    {
      "inputs": [
        {
          "internalType": "address",
          "name": "",
          "type": "address"
        }
      ],
      "name": "hasVoted",
      "outputs": [
        {
          "internalType": "bool",
          "name": "",
          "type": "bool"
        }
      ],
      "stateMutability": "view",
      "type": "function",
      "constant": true
    },
    {
      "inputs": [
        {
          "internalType": "uint256",
          "name": "",
          "type": "uint256"
        }
      ],
      "name": "polls",
      "outputs": [
        {
          "internalType": "string",
          "name": "question",
          "type": "string"
        }
      ],
      "stateMutability": "view",
      "type": "function",
      "constant": true
    },
    {
      "inputs": [
        {
          "internalType": "uint256",
          "name": "",
          "type": "uint256"
        }
      ],
      "name": "voters",
      "outputs": [
        {
          "internalType": "address",
          "name": "",
          "type": "address"
        }
      ],
      "stateMutability": "view",
      "type": "function",
      "constant": true
    },
    {
      "inputs": [
        {
          "internalType": "string",
          "name": "_question",
          "type": "string"
        },
        {
          "internalType": "string[]",
          "name": "_options",
          "type": "string[]"
        }
      ],
      "name": "createPoll",
      "outputs": [],
      "stateMutability": "nonpayable",
      "type": "function"
    },
    {
      "inputs": [],
      "name": "pollsCount",
      "outputs": [
        {
          "internalType": "uint256",
          "name": "",
          "type": "uint256"
        }
      ],
      "stateMutability": "view",
      "type": "function",
      "constant": true
    },
    {
      "inputs": [
        {
          "internalType": "uint256",
          "name": "_pollIndex",
          "type": "uint256"
        }
      ],
      "name": "getPollOptions",
      "outputs": [
        {
          "internalType": "string[]",
          "name": "",
          "type": "string[]"
        }
      ],
      "stateMutability": "view",
      "type": "function",
      "constant": true
    },
    {
      "inputs": [
        {
          "internalType": "uint256",
          "name": "pollIndex",
          "type": "uint256"
        },
        {
          "internalType": "uint256",
          "name": "optionIndex",
          "type": "uint256"
        },
        {
          "internalType": "string",
          "name": "qrCode",
          "type": "string"
        }
      ],
      "name": "vote",
      "outputs": [],
      "stateMutability": "nonpayable",
      "type": "function"
    },
    {
      "inputs": [
        {
          "internalType": "uint256",
          "name": "_pollIndex",
          "type": "uint256"
        }
      ],
      "name": "getResults",
      "outputs": [
        {
          "internalType": "uint256[]",
          "name": "",
          "type": "uint256[]"
        }
      ],
      "stateMutability": "view",
      "type": "function",
      "constant": true
    },
    {
      "inputs": [],
      "name": "getVoters",
      "outputs": [
        {
          "internalType": "address[]",
          "name": "",
          "type": "address[]"
        }
      ],
      "stateMutability": "view",
      "type": "function",
      "constant": true
    },
    {
      "inputs": [
        {
          "internalType": "uint256",
          "name": "_pollIndex",
          "type": "uint256"
        }
      ],
      "name": "getPollVotes",
      "outputs": [
        {
          "internalType": "uint256[]",
          "name": "",
          "type": "uint256[]"
        }
      ],
      "stateMutability": "view",
      "type": "function",
      "constant": true
    }
  ],
  "bytecode": "0x608060405234801561001057600080fd5b50336000806101000a81548173ffffffffffffffffffffffffffffffffffffffff021916908373ffffffffffffffffffffffffffffffffffffffff160217905550611950806100606000396000f3fe608060405234801561001057600080fd5b50600436106100a95760003560e01c8063ac2f007411610071578063ac2f007414610164578063bbff716614610194578063cdd72253146101c4578063da58c7d9146101e2578063f756276514610212578063f851a44014610242576100a9565b806309eef43e146100ae578063179d760d146100de5780637e3d71c3146100fc57806381a60c0d14610118578063a1bbfc0514610148575b600080fd5b6100c860048036038101906100c39190610ebd565b610260565b6040516100d59190611483565b60405180910390f35b6100e6610280565b6040516100f39190611580565b60405180910390f35b61011660048036038101906101119190610ee6565b61028d565b005b610132600480360381019061012d9190610f52565b6103fb565b60405161013f9190611461565b60405180910390f35b610162600480360381019061015d9190610f7b565b610595565b005b61017e60048036038101906101799190610f52565b6108e3565b60405161018b919061149e565b60405180910390f35b6101ae60048036038101906101a99190610f52565b610999565b6040516101bb9190611461565b60405180910390f35b6101cc610aec565b6040516101d9919061141d565b60405180910390f35b6101fc60048036038101906101f79190610f52565b610b7a565b6040516102099190611402565b60405180910390f35b61022c60048036038101906102279190610f52565b610bb9565b604051610239919061143f565b60405180910390f35b61024a610cdd565b6040516102579190611402565b60405180910390f35b60026020528060005260406000206000915054906101000a900460ff1681565b6000600380549050905090565b60008054906101000a900473ffffffffffffffffffffffffffffffffffffffff1673ffffffffffffffffffffffffffffffffffffffff163373ffffffffffffffffffffffffffffffffffffffff161461031b576040517f08c379a000000000000000000000000000000000000000000000000000000000815260040161031290611520565b60405180910390fd5b60006003600181600181540180825580915050039060005260206000209060040201905082816000019080519060200190610357929190610d01565b5060005b82518110156103f557816001018382815181106103a1577f4e487b7100000000000000000000000000000000000000000000000000000000600052603260045260246000fd5b60200260200101519080600181540180825580915050600190039060005260206000200160009091909190915090805190602001906103e1929190610d01565b5080806103ed90611805565b91505061035b565b50505050565b60606003805490508210610444576040517f08c379a000000000000000000000000000000000000000000000000000000000815260040161043b906114e0565b60405180910390fd5b600060038381548110610480577f4e487b7100000000000000000000000000000000000000000000000000000000600052603260045260246000fd5b906000526020600020906004020190506000816001018054905067ffffffffffffffff8111156104d9577f4e487b7100000000000000000000000000000000000000000000000000000000600052604160045260246000fd5b6040519080825280602002602001820160405280156105075781602001602082028036833780820191505090505b50905060005b826001018054905081101561058a578260020160008281526020019081526020016000205482828151811061056b577f4e487b7100000000000000000000000000000000000000000000000000000000600052603260045260246000fd5b602002602001018181525050808061058290611805565b91505061050d565b508092505050919050565b600260003373ffffffffffffffffffffffffffffffffffffffff1673ffffffffffffffffffffffffffffffffffffffff16815260200190815260200160002060009054906101000a900460ff1615610622576040517f08c379a000000000000000000000000000000000000000000000000000000000815260040161061990611540565b60405180910390fd5b6003805490508310610669576040517f08c379a000000000000000000000000000000000000000000000000000000000815260040161066090611500565b60405180910390fd5b6000600384815481106106a5577f4e487b7100000000000000000000000000000000000000000000000000000000600052603260045260246000fd5b90600052602060002090600402019050806001018054905083106106fe576040517f08c379a00000000000000000000000000000000000000000000000000000000081526004016106f5906114c0565b60405180910390fd5b806003018260405161071091906113eb565b908152602001604051809103902060009054906101000a900460ff161561076c576040517f08c379a000000000000000000000000000000000000000000000000000000000815260040161076390611560565b60405180910390fd5b806002016000848152602001908152602001600020600081548092919061079290611805565b91905055506001600260003373ffffffffffffffffffffffffffffffffffffffff1673ffffffffffffffffffffffffffffffffffffffff16815260200190815260200160002060006101000a81548160ff0219169083151502179055506001816003018360405161080391906113eb565b908152602001604051809103902060006101000a81548160ff0219169083151502179055506001339080600181540180825580915050600190039060005260206000200160009091909190916101000a81548173ffffffffffffffffffffffffffffffffffffffff021916908373ffffffffffffffffffffffffffffffffffffffff1602179055503373ffffffffffffffffffffffffffffffffffffffff167fd969941a45ed3675d614ac47cc132816bf1a99f3ac1180b6c8cdcb7b2c163bf28585856040516108d59392919061159b565b60405180910390a250505050565b600381815481106108f357600080fd5b9060005260206000209060040201600091509050806000018054610916906117d3565b80601f0160208091040260200160405190810160405280929190818152602001828054610942906117d3565b801561098f5780601f106109645761010080835404028352916020019161098f565b820191906000526020600020905b81548152906001019060200180831161097257829003601f168201915b5050505050905081565b60606000600383815481106109d7577f4e487b7100000000000000000000000000000000000000000000000000000000600052603260045260246000fd5b906000526020600020906004020190506000816001018054905067ffffffffffffffff811115610a30577f4e487b7100000000000000000000000000000000000000000000000000000000600052604160045260246000fd5b604051908082528060200260200182016040528015610a5e5781602001602082028036833780820191505090505b50905060005b8260010180549050811015610ae15782600201600082815260200190815260200160002054828281518110610ac2577f4e487b7100000000000000000000000000000000000000000000000000000000600052603260045260246000fd5b6020026020010181815250508080610ad990611805565b915050610a64565b508092505050919050565b60606001805480602002602001604051908101604052809291908181526020018280548015610b7057602002820191906000526020600020905b8160009054906101000a900473ffffffffffffffffffffffffffffffffffffffff1673ffffffffffffffffffffffffffffffffffffffff1681526020019060010190808311610b26575b5050505050905090565b60018181548110610b8a57600080fd5b906000526020600020016000915054906101000a900473ffffffffffffffffffffffffffffffffffffffff1681565b606060038281548110610bf5577f4e487b7100000000000000000000000000000000000000000000000000000000600052603260045260246000fd5b9060005260206000209060040201600101805480602002602001604051908101604052809291908181526020016000905b82821015610cd2578382906000526020600020018054610c45906117d3565b80601f0160208091040260200160405190810160405280929190818152602001828054610c71906117d3565b8015610cbe5780601f10610c9357610100808354040283529160200191610cbe565b820191906000526020600020905b815481529060010190602001808311610ca157829003601f168201915b505050505081526020019060010190610c26565b505050509050919050565b60008054906101000a900473ffffffffffffffffffffffffffffffffffffffff1681565b828054610d0d906117d3565b90600052602060002090601f016020900481019282610d2f5760008555610d76565b82601f10610d4857805160ff1916838001178555610d76565b82800160010185558215610d76579182015b82811115610d75578251825591602001919060010190610d5a565b5b509050610d839190610d87565b5090565b5b80821115610da0576000816000905550600101610d88565b5090565b6000610db7610db28461160a565b6115d9565b9050808382526020820190508260005b85811015610df75781358501610ddd8882610e7e565b845260208401935060208301925050600181019050610dc7565b5050509392505050565b6000610e14610e0f84611636565b6115d9565b905082815260208101848484011115610e2c57600080fd5b610e37848285611791565b509392505050565b600081359050610e4e816118ec565b92915050565b600082601f830112610e6557600080fd5b8135610e75848260208601610da4565b91505092915050565b600082601f830112610e8f57600080fd5b8135610e9f848260208601610e01565b91505092915050565b600081359050610eb781611903565b92915050565b600060208284031215610ecf57600080fd5b6000610edd84828501610e3f565b91505092915050565b60008060408385031215610ef957600080fd5b600083013567ffffffffffffffff811115610f1357600080fd5b610f1f85828601610e7e565b925050602083013567ffffffffffffffff811115610f3c57600080fd5b610f4885828601610e54565b9150509250929050565b600060208284031215610f6457600080fd5b6000610f7284828501610ea8565b91505092915050565b600080600060608486031215610f9057600080fd5b6000610f9e86828701610ea8565b9350506020610faf86828701610ea8565b925050604084013567ffffffffffffffff811115610fcc57600080fd5b610fd886828701610e7e565b9150509250925092565b6000610fee8383611026565b60208301905092915050565b60006110068383611184565b905092915050565b600061101a83836113cd565b60208301905092915050565b61102f81611749565b82525050565b61103e81611749565b82525050565b600061104f82611696565b61105981856116e9565b935061106483611666565b8060005b8381101561109557815161107c8882610fe2565b9750611087836116c2565b925050600181019050611068565b5085935050505092915050565b60006110ad826116a1565b6110b781856116fa565b9350836020820285016110c985611676565b8060005b8581101561110557848403895281516110e68582610ffa565b94506110f1836116cf565b925060208a019950506001810190506110cd565b50829750879550505050505092915050565b6000611122826116ac565b61112c818561170b565b935061113783611686565b8060005b8381101561116857815161114f888261100e565b975061115a836116dc565b92505060018101905061113b565b5085935050505092915050565b61117e8161175b565b82525050565b600061118f826116b7565b611199818561171c565b93506111a98185602086016117a0565b6111b2816118db565b840191505092915050565b60006111c8826116b7565b6111d2818561172d565b93506111e28185602086016117a0565b6111eb816118db565b840191505092915050565b6000611201826116b7565b61120b818561173e565b935061121b8185602086016117a0565b80840191505092915050565b600061123460148361172d565b91507f496e76616c6964206f7074696f6e20696e6465780000000000000000000000006000830152602082019050919050565b600061127460148361172d565b91507f506f6c6c20646f6573206e6f742065786973742e0000000000000000000000006000830152602082019050919050565b60006112b460128361172d565b91507f496e76616c696420706f6c6c20696e64657800000000000000000000000000006000830152602082019050919050565b60006112f460208361172d565b91507f4f6e6c79207468652061646d696e2063616e2063726561746520706f6c6c732e6000830152602082019050919050565b600061133460168361172d565b91507f596f75206861766520616c726561647920766f746564000000000000000000006000830152602082019050919050565b600061137460228361172d565b91507f5468697320515220636f64652068617320616c7265616479206265656e20757360008301527f65640000000000000000000000000000000000000000000000000000000000006020830152604082019050919050565b6113d681611787565b82525050565b6113e581611787565b82525050565b60006113f782846111f6565b915081905092915050565b60006020820190506114176000830184611035565b92915050565b600060208201905081810360008301526114378184611044565b905092915050565b6000602082019050818103600083015261145981846110a2565b905092915050565b6000602082019050818103600083015261147b8184611117565b905092915050565b60006020820190506114986000830184611175565b92915050565b600060208201905081810360008301526114b881846111bd565b905092915050565b600060208201905081810360008301526114d981611227565b9050919050565b600060208201905081810360008301526114f981611267565b9050919050565b60006020820190508181036000830152611519816112a7565b9050919050565b60006020820190508181036000830152611539816112e7565b9050919050565b6000602082019050818103600083015261155981611327565b9050919050565b6000602082019050818103600083015261157981611367565b9050919050565b600060208201905061159560008301846113dc565b92915050565b60006060820190506115b060008301866113dc565b6115bd60208301856113dc565b81810360408301526115cf81846111bd565b9050949350505050565b6000604051905081810181811067ffffffffffffffff82111715611600576115ff6118ac565b5b8060405250919050565b600067ffffffffffffffff821115611625576116246118ac565b5b602082029050602081019050919050565b600067ffffffffffffffff821115611651576116506118ac565b5b601f19601f8301169050602081019050919050565b6000819050602082019050919050565b6000819050602082019050919050565b6000819050602082019050919050565b600081519050919050565b600081519050919050565b600081519050919050565b600081519050919050565b6000602082019050919050565b6000602082019050919050565b6000602082019050919050565b600082825260208201905092915050565b600082825260208201905092915050565b600082825260208201905092915050565b600082825260208201905092915050565b600082825260208201905092915050565b600081905092915050565b600061175482611767565b9050919050565b60008115159050919050565b600073ffffffffffffffffffffffffffffffffffffffff82169050919050565b6000819050919050565b82818337600083830152505050565b60005b838110156117be5780820151818401526020810190506117a3565b838111156117cd576000848401525b50505050565b600060028204905060018216806117eb57607f821691505b602082108114156117ff576117fe61187d565b5b50919050565b600061181082611787565b91507fffffffffffffffffffffffffffffffffffffffffffffffffffffffffffffffff8214156118435761184261184e565b5b600182019050919050565b7f4e487b7100000000000000000000000000000000000000000000000000000000600052601160045260246000fd5b7f4e487b7100000000000000000000000000000000000000000000000000000000600052602260045260246000fd5b7f4e487b7100000000000000000000000000000000000000000000000000000000600052604160045260246000fd5b6000601f19601f8301169050919050565b6118f581611749565b811461190057600080fd5b50565b61190c81611787565b811461191757600080fd5b5056fea2646970667358221220573678e47723fd6edd915d88218a82f3c0546777b909781a581b7151a592b5ca64736f6c63430008000033",
  "immutableReferences": {},
  "source": "// SPDX-License-Identifier: MIT\r\npragma solidity ^0.8.0;\r\n\r\ncontract Voting {\r\n    address public admin;\r\n    address[] public voters;\r\n\r\n    // Mapping to track whether an address has voted\r\n    mapping(address => bool) public hasVoted;\r\n\r\n    struct Poll {\r\n        string question;\r\n        string[] options;\r\n        mapping(uint => uint) votes; // Mapping to store votes for each option\r\n        mapping(string => bool) usedQrCodes; // Mapping to track used QR codes\r\n    }\r\n\r\n    Poll[] public polls;\r\n\r\n    // Event to log when a vote is cast\r\n    event Voted(address indexed voter, uint256 pollIndex, uint256 optionIndex, string qrCode);\r\n\r\n    constructor() {\r\n        admin = msg.sender;\r\n    }\r\n\r\n    // Create a new poll\r\n    function createPoll(string memory _question, string[] memory _options) public {\r\n        require(msg.sender == admin, \"Only the admin can create polls.\");\r\n        Poll storage newPoll = polls.push();\r\n        newPoll.question = _question;\r\n        for (uint i = 0; i < _options.length; i++) {\r\n            newPoll.options.push(_options[i]);\r\n        }\r\n    }\r\n\r\n    // Function to get the count of polls\r\n    function pollsCount() public view returns (uint) {\r\n        return polls.length;\r\n    }\r\n\r\n    // Get poll options for a specific poll index\r\n    function getPollOptions(uint _pollIndex) public view returns (string[] memory) {\r\n        return polls[_pollIndex].options;\r\n    }\r\n\r\n    // Vote in a poll\r\n    function vote(uint256 pollIndex, uint256 optionIndex, string memory qrCode) public {\r\n        // Ensure that the sender hasn't already voted\r\n        require(!hasVoted[msg.sender], \"You have already voted\");\r\n\r\n        // Ensure the poll exists and the optionIndex is valid\r\n        require(pollIndex < polls.length, \"Invalid poll index\");\r\n        Poll storage poll = polls[pollIndex];\r\n        require(optionIndex < poll.options.length, \"Invalid option index\");\r\n\r\n        // Ensure the QR code hasn't been used before\r\n        require(!poll.usedQrCodes[qrCode], \"This QR code has already been used\");\r\n\r\n        // Process the vote (increment the vote count for the selected option)\r\n        poll.votes[optionIndex]++;\r\n\r\n        // Mark the sender as having voted\r\n        hasVoted[msg.sender] = true;\r\n\r\n        // Mark the QR code as used\r\n        poll.usedQrCodes[qrCode] = true;\r\n        // Inside the vote function\r\n        voters.push(msg.sender);\r\n        // Emit the vote event with QR code\r\n        emit Voted(msg.sender, pollIndex, optionIndex, qrCode);\r\n    }\r\n\r\n    // Get poll results\r\n    function getResults(uint _pollIndex) public view returns (uint[] memory) {\r\n        require(_pollIndex < polls.length, \"Poll does not exist.\");\r\n        Poll storage poll = polls[_pollIndex];\r\n        uint[] memory results = new uint[](poll.options.length);\r\n        for (uint i = 0; i < poll.options.length; i++) {\r\n            results[i] = poll.votes[i];\r\n        }\r\n        return results;\r\n    }\r\n\r\n    function getVoters() public view returns (address[] memory) {\r\n    return voters;\r\n    }\r\n\r\n\r\n    //for specific polls\r\n    function getPollVotes(uint256 _pollIndex) public view returns (uint256[] memory) {\r\n        Poll storage poll = polls[_pollIndex];\r\n        uint256[] memory votes = new uint256[](poll.options.length);\r\n\r\n        for (uint256 i = 0; i < poll.options.length; i++) {\r\n            votes[i] = poll.votes[i];\r\n        }\r\n\r\n        return votes;\r\n    }\r\n\r\n}\r\n",
  "sourcePath": "C:\\Users\\shoai\\OneDrive\\Desktop\\STUDY\\simple-voting-system\\contracts\\Voting.sol",
  "compiler": {
    "name": "solc",
    "version": "0.8.0+commit.c7dfd78e.Emscripten.clang"
  },
  "schemaVersion": "3.4.16",
  "updatedAt": "2025-01-29T16:21:52.610Z",
  "networkType": "ethereum",
  "devdoc": {
    "kind": "dev",
    "methods": {},
    "version": 1
  },
  "userdoc": {
    "kind": "user",
    "methods": {},
    "version": 1
  }
}